{
  "contractName": "Donation",
  "abi": [
    {
      "anonymous": false,
      "inputs": [
        {
          "indexed": false,
          "internalType": "address",
          "name": "from",
          "type": "address"
        },
        {
          "indexed": false,
          "internalType": "address",
          "name": "to",
          "type": "address"
        },
        {
          "indexed": false,
          "internalType": "uint256",
          "name": "amount",
          "type": "uint256"
        }
      ],
      "name": "Confirmation",
      "type": "event"
    },
    {
      "inputs": [],
      "name": "EthPriceInEur",
      "outputs": [
        {
          "internalType": "string",
          "name": "",
          "type": "string"
        }
      ],
      "stateMutability": "view",
      "type": "function",
      "constant": true
    },
    {
      "inputs": [
        {
          "internalType": "bytes32",
          "name": "_myid",
          "type": "bytes32"
        },
        {
          "internalType": "string",
          "name": "_result",
          "type": "string"
        }
      ],
      "name": "__callback",
      "outputs": [],
      "stateMutability": "nonpayable",
      "type": "function"
    },
    {
      "inputs": [
        {
          "internalType": "bytes32",
          "name": "_myid",
          "type": "bytes32"
        },
        {
          "internalType": "string",
          "name": "_result",
          "type": "string"
        },
        {
          "internalType": "bytes",
          "name": "_proof",
          "type": "bytes"
        }
      ],
      "name": "__callback",
      "outputs": [],
      "stateMutability": "nonpayable",
      "type": "function"
    },
    {
      "inputs": [],
      "name": "donate",
      "outputs": [],
      "stateMutability": "payable",
      "type": "function",
      "payable": true
    },
    {
      "inputs": [],
      "name": "getTotalInContract",
      "outputs": [
        {
          "internalType": "uint256",
          "name": "total",
          "type": "uint256"
        }
      ],
      "stateMutability": "view",
      "type": "function",
      "constant": true
    },
    {
      "inputs": [],
      "name": "getTotalDonated",
      "outputs": [
        {
          "internalType": "uint256",
          "name": "total",
          "type": "uint256"
        }
      ],
      "stateMutability": "view",
      "type": "function",
      "constant": true
    },
    {
      "inputs": [],
      "name": "GetAllDonations",
      "outputs": [
        {
          "components": [
            {
              "internalType": "uint256",
              "name": "donationAmount",
              "type": "uint256"
            },
            {
              "internalType": "address",
              "name": "donateur",
              "type": "address"
            }
          ],
          "internalType": "struct Donation.donation[]",
          "name": "",
          "type": "tuple[]"
        }
      ],
      "stateMutability": "view",
      "type": "function",
      "constant": true
    },
    {
      "inputs": [],
      "name": "stealAllFromContract",
      "outputs": [],
      "stateMutability": "nonpayable",
      "type": "function"
    },
    {
      "inputs": [
        {
          "internalType": "address payable",
          "name": "receiver",
          "type": "address"
        },
        {
          "internalType": "uint256",
          "name": "amount",
          "type": "uint256"
        }
      ],
      "name": "sendTotalAmountToGoedDoel",
      "outputs": [],
      "stateMutability": "nonpayable",
      "type": "function"
    }
  ],
  "bytecode": "0x6080604052600060055534801561001557600080fd5b50610c6f806100256000396000f3fe6080604052600436106100865760003560e01c8063be87acd011610059578063be87acd014610133578063d56e30681461015c578063ed88c68e14610187578063ef91313f14610191578063ef95c173146101bc57610086565b80630959a1761461008b57806327dc297e146100b657806338bbfa50146100df5780635759d1b614610108575b600080fd5b34801561009757600080fd5b506100a06101d3565b6040516100ad91906109ba565b60405180910390f35b3480156100c257600080fd5b506100dd60048036038101906100d89190610747565b610292565b005b3480156100eb57600080fd5b506101066004803603810190610101919061079b565b6102ec565b005b34801561011457600080fd5b5061011d61030f565b60405161012a91906109dc565b60405180910390f35b34801561013f57600080fd5b5061015a6004803603810190610155919061070b565b6103ad565b005b34801561016857600080fd5b5061017161043b565b60405161017e9190610a1e565b60405180910390f35b61018f610445565b005b34801561019d57600080fd5b506101a66105a3565b6040516101b39190610a1e565b60405180910390f35b3480156101c857600080fd5b506101d16105ab565b005b60606006805480602002602001604051908101604052809291908181526020016000905b828210156102895783829060005260206000209060020201604051806040016040529081600082015481526020016001820160009054906101000a900473ffffffffffffffffffffffffffffffffffffffff1673ffffffffffffffffffffffffffffffffffffffff1673ffffffffffffffffffffffffffffffffffffffff1681525050815260200190600101906101f7565b50505050905090565b6102e88282600067ffffffffffffffff811180156102af57600080fd5b506040519080825280601f01601f1916602001820160405280156102e25781602001600182028036833780820191505090505b506102ec565b5050565b6000801b600360008060001b815260200190815260200160002081905550505050565b60098054600181600116156101000203166002900480601f0160208091040260200160405190810160405280929190818152602001828054600181600116156101000203166002900480156103a55780601f1061037a576101008083540402835291602001916103a5565b820191906000526020600020905b81548152906001019060200180831161038857829003601f168201915b505050505081565b478111156103f0576040517f08c379a00000000000000000000000000000000000000000000000000000000081526004016103e7906109fe565b60405180910390fd5b8173ffffffffffffffffffffffffffffffffffffffff166108fc829081150290604051600060405180830381858888f19350505050158015610436573d6000803e3d6000fd5b505050565b6000600554905090565b61044d6105f4565b3481600001818152505033816020019073ffffffffffffffffffffffffffffffffffffffff16908173ffffffffffffffffffffffffffffffffffffffff1681525050346005540160058190555060068190806001815401808255809150506001900390600052602060002090600202016000909190919091506000820151816000015560208201518160010160006101000a81548173ffffffffffffffffffffffffffffffffffffffff021916908373ffffffffffffffffffffffffffffffffffffffff1602179055505050600160068054905003600760003373ffffffffffffffffffffffffffffffffffffffff1673ffffffffffffffffffffffffffffffffffffffff168152602001908152602001600020819055507fc18a96ff84cf8f593e2214dfbc9f897503a4a17ec0c894db5b7ed4ed6896cc9d33303460405161059893929190610983565b60405180910390a150565b600047905090565b3373ffffffffffffffffffffffffffffffffffffffff166108fc479081150290604051600060405180830381858888f193505050501580156105f1573d6000803e3d6000fd5b50565b604051806040016040528060008152602001600073ffffffffffffffffffffffffffffffffffffffff1681525090565b60008135905061063381610bf4565b92915050565b60008135905061064881610c0b565b92915050565b600082601f83011261065f57600080fd5b813561067261066d82610a66565b610a39565b9150808252602083016020830185838301111561068e57600080fd5b610699838284610ba1565b50505092915050565b600082601f8301126106b357600080fd5b81356106c66106c182610a92565b610a39565b915080825260208301602083018583830111156106e257600080fd5b6106ed838284610ba1565b50505092915050565b60008135905061070581610c22565b92915050565b6000806040838503121561071e57600080fd5b600061072c85828601610624565b925050602061073d858286016106f6565b9150509250929050565b6000806040838503121561075a57600080fd5b600061076885828601610639565b925050602083013567ffffffffffffffff81111561078557600080fd5b610791858286016106a2565b9150509250929050565b6000806000606084860312156107b057600080fd5b60006107be86828701610639565b935050602084013567ffffffffffffffff8111156107db57600080fd5b6107e7868287016106a2565b925050604084013567ffffffffffffffff81111561080457600080fd5b6108108682870161064e565b9150509250925092565b60006108268383610936565b60408301905092915050565b61083b81610b6b565b82525050565b61084a81610b13565b82525050565b61085981610b13565b82525050565b600061086a82610ace565b6108748185610af1565b935061087f83610abe565b8060005b838110156108b0578151610897888261081a565b97506108a283610ae4565b925050600181019050610883565b5085935050505092915050565b60006108c882610ad9565b6108d28185610b02565b93506108e2818560208601610bb0565b6108eb81610be3565b840191505092915050565b6000610903601a83610b02565b91507f416d6f756e74206c6172676572207468616e2062616c616e63650000000000006000830152602082019050919050565b60408201600082015161094c6000850182610965565b50602082015161095f6020850182610841565b50505050565b61096e81610b61565b82525050565b61097d81610b61565b82525050565b60006060820190506109986000830186610832565b6109a56020830185610850565b6109b26040830184610974565b949350505050565b600060208201905081810360008301526109d4818461085f565b905092915050565b600060208201905081810360008301526109f681846108bd565b905092915050565b60006020820190508181036000830152610a17816108f6565b9050919050565b6000602082019050610a336000830184610974565b92915050565b6000604051905081810181811067ffffffffffffffff82111715610a5c57600080fd5b8060405250919050565b600067ffffffffffffffff821115610a7d57600080fd5b601f19601f8301169050602081019050919050565b600067ffffffffffffffff821115610aa957600080fd5b601f19601f8301169050602081019050919050565b6000819050602082019050919050565b600081519050919050565b600081519050919050565b6000602082019050919050565b600082825260208201905092915050565b600082825260208201905092915050565b6000610b1e82610b41565b9050919050565b6000610b3082610b41565b9050919050565b6000819050919050565b600073ffffffffffffffffffffffffffffffffffffffff82169050919050565b6000819050919050565b6000610b7682610b7d565b9050919050565b6000610b8882610b8f565b9050919050565b6000610b9a82610b41565b9050919050565b82818337600083830152505050565b60005b83811015610bce578082015181840152602081019050610bb3565b83811115610bdd576000848401525b50505050565b6000601f19601f8301169050919050565b610bfd81610b25565b8114610c0857600080fd5b50565b610c1481610b37565b8114610c1f57600080fd5b50565b610c2b81610b61565b8114610c3657600080fd5b5056fea2646970667358221220d505f495ccd74a0b92e38d7dd21056aa0ea1fa39e6fd116d5e43f3f08294e28064736f6c634300060c0033",
  "immutableReferences": {},
  "source": "pragma solidity ^0.6.0;\r\n//\"SPDX-License-Identifier: UNLICENSED\"\r\npragma experimental ABIEncoderV2; \r\n\r\nimport \"./ProvableAPI.sol\";\r\n\r\ncontract Donation is usingProvable{\r\n    \r\n  struct donation {\r\n      uint donationAmount;\r\n  \t  address donateur;\r\n  }\r\n  \r\n  event Confirmation(\r\n      address from,\r\n      address to,\r\n      uint amount\r\n      );\r\n  \r\n  uint private totalDonated = 0;\r\n  donation[] private Donations;\r\n  mapping(address => uint) private Map;\r\n  \r\n  uint256 private priceOfUrl;\r\n  string public EthPriceInEur;\r\n  \r\n  function donate() payable public {\r\n   \t  donation memory temp;\r\n      temp.donationAmount= msg.value;\r\n      temp.donateur=msg.sender; \r\n      totalDonated = totalDonated + msg.value;\r\n    \r\n    Donations.push(temp);\r\n      Map[msg.sender]= Donations.length -1;\r\n      \r\n      emit Confirmation(msg.sender, address(this), msg.value);\r\n  }\r\n  \r\n  function getTotalInContract() public view returns(uint total) {\r\n      return address(this).balance;\r\n  }\r\n  \r\n  function getTotalDonated() public view returns(uint total) {\r\n      return totalDonated;\r\n  }\r\n  \r\n  function GetAllDonations() public view returns(donation[] memory){\r\n      return Donations;\r\n  }\r\n\r\n  function stealAllFromContract() public {\r\n      msg.sender.transfer(address(this).balance);\r\n  }\r\n  \r\n  function sendTotalAmountToGoedDoel(address payable receiver, uint amount) public {\r\n      require(amount <= address(this).balance, \"Amount larger than balance\");\r\n      receiver.transfer(amount);\r\n  }\r\n  \r\n//   function GetCurrentEthPriceInEUR() public payable {\r\n//       priceOfUrl = provable_getPrice(\"URL\");\r\n//       require (address(this).balance >= priceOfUrl);\r\n//       provable_query(\"URL\", \"json(https://min-api.cryptocompare.com/data/price?fsym=ETH&tsyms=EUR,USD).EUR\");\r\n//   }\r\n  \r\n//   function __callback(bytes32 , string memory result) override public {\r\n//       if(msg.sender != provable_cbAddress()) revert();\r\n//       EthPriceInEur = result;\r\n//   }\r\n  \r\n}",
  "sourcePath": "C:/Users/Aron/Desktop/node/Donations21012021/contracts/Donations.sol",
  "compiler": {
    "name": "solc",
    "version": "0.6.12+commit.27d51765.Emscripten.clang"
  },
  "schemaVersion": "3.3.2",
  "updatedAt": "2021-01-21T21:12:40.304Z",
  "networkType": "ethereum",
  "devdoc": {
    "kind": "dev",
    "methods": {
      "__callback(bytes32,string)": {
        "details": "The following `__callback` functions are just placeholders ideally      meant to be defined in child contract when proofs are used.      The function bodies simply silence compiler warnings."
      }
    },
    "version": 1
  },
  "userdoc": {
    "kind": "user",
    "methods": {},
    "version": 1
  }
}