{
  "contractName": "Donations",
  "abi": [
    {
      "inputs": [
        {
          "internalType": "address",
          "name": "bookkeeper",
          "type": "address"
        }
      ],
      "stateMutability": "nonpayable",
      "type": "constructor"
    },
    {
      "anonymous": false,
      "inputs": [
        {
          "indexed": true,
          "internalType": "bytes32",
          "name": "role",
          "type": "bytes32"
        },
        {
          "indexed": true,
          "internalType": "bytes32",
          "name": "previousAdminRole",
          "type": "bytes32"
        },
        {
          "indexed": true,
          "internalType": "bytes32",
          "name": "newAdminRole",
          "type": "bytes32"
        }
      ],
      "name": "RoleAdminChanged",
      "type": "event"
    },
    {
      "anonymous": false,
      "inputs": [
        {
          "indexed": true,
          "internalType": "bytes32",
          "name": "role",
          "type": "bytes32"
        },
        {
          "indexed": true,
          "internalType": "address",
          "name": "account",
          "type": "address"
        },
        {
          "indexed": true,
          "internalType": "address",
          "name": "sender",
          "type": "address"
        }
      ],
      "name": "RoleGranted",
      "type": "event"
    },
    {
      "anonymous": false,
      "inputs": [
        {
          "indexed": true,
          "internalType": "bytes32",
          "name": "role",
          "type": "bytes32"
        },
        {
          "indexed": true,
          "internalType": "address",
          "name": "account",
          "type": "address"
        },
        {
          "indexed": true,
          "internalType": "address",
          "name": "sender",
          "type": "address"
        }
      ],
      "name": "RoleRevoked",
      "type": "event"
    },
    {
      "inputs": [],
      "name": "BOOKKEEPER_ROLE",
      "outputs": [
        {
          "internalType": "bytes32",
          "name": "",
          "type": "bytes32"
        }
      ],
      "stateMutability": "view",
      "type": "function",
      "constant": true
    },
    {
      "inputs": [],
      "name": "DEFAULT_ADMIN_ROLE",
      "outputs": [
        {
          "internalType": "bytes32",
          "name": "",
          "type": "bytes32"
        }
      ],
      "stateMutability": "view",
      "type": "function",
      "constant": true
    },
    {
      "inputs": [
        {
          "internalType": "bytes32",
          "name": "role",
          "type": "bytes32"
        }
      ],
      "name": "getRoleAdmin",
      "outputs": [
        {
          "internalType": "bytes32",
          "name": "",
          "type": "bytes32"
        }
      ],
      "stateMutability": "view",
      "type": "function",
      "constant": true
    },
    {
      "inputs": [
        {
          "internalType": "bytes32",
          "name": "role",
          "type": "bytes32"
        },
        {
          "internalType": "uint256",
          "name": "index",
          "type": "uint256"
        }
      ],
      "name": "getRoleMember",
      "outputs": [
        {
          "internalType": "address",
          "name": "",
          "type": "address"
        }
      ],
      "stateMutability": "view",
      "type": "function",
      "constant": true
    },
    {
      "inputs": [
        {
          "internalType": "bytes32",
          "name": "role",
          "type": "bytes32"
        }
      ],
      "name": "getRoleMemberCount",
      "outputs": [
        {
          "internalType": "uint256",
          "name": "",
          "type": "uint256"
        }
      ],
      "stateMutability": "view",
      "type": "function",
      "constant": true
    },
    {
      "inputs": [
        {
          "internalType": "bytes32",
          "name": "role",
          "type": "bytes32"
        },
        {
          "internalType": "address",
          "name": "account",
          "type": "address"
        }
      ],
      "name": "grantRole",
      "outputs": [],
      "stateMutability": "nonpayable",
      "type": "function"
    },
    {
      "inputs": [
        {
          "internalType": "bytes32",
          "name": "role",
          "type": "bytes32"
        },
        {
          "internalType": "address",
          "name": "account",
          "type": "address"
        }
      ],
      "name": "hasRole",
      "outputs": [
        {
          "internalType": "bool",
          "name": "",
          "type": "bool"
        }
      ],
      "stateMutability": "view",
      "type": "function",
      "constant": true
    },
    {
      "inputs": [
        {
          "internalType": "bytes32",
          "name": "role",
          "type": "bytes32"
        },
        {
          "internalType": "address",
          "name": "account",
          "type": "address"
        }
      ],
      "name": "renounceRole",
      "outputs": [],
      "stateMutability": "nonpayable",
      "type": "function"
    },
    {
      "inputs": [
        {
          "internalType": "bytes32",
          "name": "role",
          "type": "bytes32"
        },
        {
          "internalType": "address",
          "name": "account",
          "type": "address"
        }
      ],
      "name": "revokeRole",
      "outputs": [],
      "stateMutability": "nonpayable",
      "type": "function"
    },
    {
      "inputs": [],
      "name": "getData",
      "outputs": [
        {
          "internalType": "uint256",
          "name": "",
          "type": "uint256"
        }
      ],
      "stateMutability": "view",
      "type": "function",
      "constant": true
    },
    {
      "inputs": [
        {
          "internalType": "uint256",
          "name": "_data",
          "type": "uint256"
        }
      ],
      "name": "setData",
      "outputs": [],
      "stateMutability": "nonpayable",
      "type": "function"
    }
  ],
  "bytecode": "0x608060405234801561001057600080fd5b50604051610d8a380380610d8a8339818101604052602081101561003357600080fd5b81019080805190602001909291905050506100747f03c7040f8e5b938f657d4600d08b1b77f390141994844cbb34ff043f26ac6cd78261007a60201b60201c565b50610202565b61008a828261008e60201b60201c565b5050565b6100b98160008085815260200190815260200160002060000161012b60201b6106971790919060201c565b15610127576100cc61016160201b60201c565b73ffffffffffffffffffffffffffffffffffffffff168173ffffffffffffffffffffffffffffffffffffffff16837f2f8788117e7eff1d82e926ec794901d17c78024a50270940304540a733656f0d60405160405180910390a45b5050565b6000610159836000018373ffffffffffffffffffffffffffffffffffffffff1660001b61016960201b60201c565b905092915050565b600033905090565b600061017b83836101df60201b60201c565b6101d45782600001829080600181540180825580915050600190039060005260206000200160009091909190915055826000018054905083600101600084815260200190815260200160002081905550600190506101d9565b600090505b92915050565b600080836001016000848152602001908152602001600020541415905092915050565b610b79806102116000396000f3fe608060405234801561001057600080fd5b50600436106100a95760003560e01c80638e8ce6b9116100715780638e8ce6b9146101d85780639010d07c146101f657806391d1485414610258578063a217fddf146102bc578063ca15c873146102da578063d547741f1461031c576100a9565b8063248a9ca3146100ae5780632f2ff15d146100f057806336568abe1461013e5780633bc5de301461018c5780635b4b73a9146101aa575b600080fd5b6100da600480360360208110156100c457600080fd5b810190808035906020019092919050505061036a565b6040518082815260200191505060405180910390f35b61013c6004803603604081101561010657600080fd5b8101908080359060200190929190803573ffffffffffffffffffffffffffffffffffffffff169060200190929190505050610389565b005b61018a6004803603604081101561015457600080fd5b8101908080359060200190929190803573ffffffffffffffffffffffffffffffffffffffff169060200190929190505050610412565b005b6101946104ab565b6040518082815260200191505060405180910390f35b6101d6600480360360208110156101c057600080fd5b81019080803590602001909291905050506104b5565b005b6101e061055b565b6040518082815260200191505060405180910390f35b61022c6004803603604081101561020c57600080fd5b81019080803590602001909291908035906020019092919050505061057f565b604051808273ffffffffffffffffffffffffffffffffffffffff16815260200191505060405180910390f35b6102a46004803603604081101561026e57600080fd5b8101908080359060200190929190803573ffffffffffffffffffffffffffffffffffffffff1690602001909291905050506105b0565b60405180821515815260200191505060405180910390f35b6102c46105e1565b6040518082815260200191505060405180910390f35b610306600480360360208110156102f057600080fd5b81019080803590602001909291905050506105e8565b6040518082815260200191505060405180910390f35b6103686004803603604081101561033257600080fd5b8101908080359060200190929190803573ffffffffffffffffffffffffffffffffffffffff16906020019092919050505061060e565b005b6000806000838152602001908152602001600020600201549050919050565b6103af600080848152602001908152602001600020600201546103aa6106c7565b6105b0565b610404576040517f08c379a000000000000000000000000000000000000000000000000000000000815260040180806020018281038252602f815260200180610ab6602f913960400191505060405180910390fd5b61040e82826106cf565b5050565b61041a6106c7565b73ffffffffffffffffffffffffffffffffffffffff168173ffffffffffffffffffffffffffffffffffffffff161461049d576040517f08c379a000000000000000000000000000000000000000000000000000000000815260040180806020018281038252602f815260200180610b15602f913960400191505060405180910390fd5b6104a78282610762565b5050565b6000600154905090565b6104df7f03c7040f8e5b938f657d4600d08b1b77f390141994844cbb34ff043f26ac6cd7336105b0565b610551576040517f08c379a000000000000000000000000000000000000000000000000000000000815260040180806020018281038252601c8152602001807f43616c6c6572206973206e6f742074686520626f6f6b6b65657065720000000081525060200191505060405180910390fd5b8060018190555050565b7f03c7040f8e5b938f657d4600d08b1b77f390141994844cbb34ff043f26ac6cd781565b60006105a8826000808681526020019081526020016000206000016107f590919063ffffffff16565b905092915050565b60006105d98260008086815260200190815260200160002060000161080f90919063ffffffff16565b905092915050565b6000801b81565b600061060760008084815260200190815260200160002060000161083f565b9050919050565b6106346000808481526020019081526020016000206002015461062f6106c7565b6105b0565b610689576040517f08c379a0000000000000000000000000000000000000000000000000000000008152600401808060200182810382526030815260200180610ae56030913960400191505060405180910390fd5b6106938282610762565b5050565b60006106bf836000018373ffffffffffffffffffffffffffffffffffffffff1660001b610854565b905092915050565b600033905090565b6106f68160008085815260200190815260200160002060000161069790919063ffffffff16565b1561075e576107036106c7565b73ffffffffffffffffffffffffffffffffffffffff168173ffffffffffffffffffffffffffffffffffffffff16837f2f8788117e7eff1d82e926ec794901d17c78024a50270940304540a733656f0d60405160405180910390a45b5050565b610789816000808581526020019081526020016000206000016108c490919063ffffffff16565b156107f1576107966106c7565b73ffffffffffffffffffffffffffffffffffffffff168173ffffffffffffffffffffffffffffffffffffffff16837ff6391f5c32d9c69d2a47ea670b442974b53935d1edc7fd64eb21e047a839171b60405160405180910390a45b5050565b600061080483600001836108f4565b60001c905092915050565b6000610837836000018373ffffffffffffffffffffffffffffffffffffffff1660001b610977565b905092915050565b600061084d8260000161099a565b9050919050565b60006108608383610977565b6108b95782600001829080600181540180825580915050600190039060005260206000200160009091909190915055826000018054905083600101600084815260200190815260200160002081905550600190506108be565b600090505b92915050565b60006108ec836000018373ffffffffffffffffffffffffffffffffffffffff1660001b6109ab565b905092915050565b600081836000018054905011610955576040517f08c379a0000000000000000000000000000000000000000000000000000000008152600401808060200182810382526022815260200180610a946022913960400191505060405180910390fd5b82600001828154811061096457fe5b9060005260206000200154905092915050565b600080836001016000848152602001908152602001600020541415905092915050565b600081600001805490509050919050565b60008083600101600084815260200190815260200160002054905060008114610a8757600060018203905060006001866000018054905003905060008660000182815481106109f657fe5b9060005260206000200154905080876000018481548110610a1357fe5b9060005260206000200181905550600183018760010160008381526020019081526020016000208190555086600001805480610a4b57fe5b60019003818190600052602060002001600090559055866001016000878152602001908152602001600020600090556001945050505050610a8d565b60009150505b9291505056fe456e756d657261626c655365743a20696e646578206f7574206f6620626f756e6473416363657373436f6e74726f6c3a2073656e646572206d75737420626520616e2061646d696e20746f206772616e74416363657373436f6e74726f6c3a2073656e646572206d75737420626520616e2061646d696e20746f207265766f6b65416363657373436f6e74726f6c3a2063616e206f6e6c792072656e6f756e636520726f6c657320666f722073656c66a2646970667358221220c640c13dac98acecf7817e1a5c6c1e88a7c7ac465aefffce1eb11d285373343164736f6c634300060c0033",
  "immutableReferences": {},
  "source": "pragma solidity ^0.6.0;\r\n//\"SPDX-License-Identifier: UNLICENSED\"\r\nimport \"@openzeppelin/contracts/access/AccessControl.sol\";\r\n\r\ncontract Donations is AccessControl {\r\n  \r\n  uint data;\r\n  bytes32 public constant BOOKKEEPER_ROLE = keccak256(\"BOOKKEEPER_ROLE\");\r\n\r\n  constructor(address bookkeeper) public {\r\n      _setupRole(BOOKKEEPER_ROLE, bookkeeper);\r\n  }\r\n  \r\n  function getData() external view returns(uint){\r\n      return data;\r\n  }\r\n  \r\n  function setData(uint _data) external {\r\n      require(hasRole(BOOKKEEPER_ROLE, msg.sender), \"Caller is not the bookkeeper\");\r\n      data = _data;\r\n  }\r\n}",
  "sourcePath": "C:/Users/Aron/Desktop/node/ownable/contracts/Donations.sol",
  "compiler": {
    "name": "solc",
    "version": "0.6.12+commit.27d51765.Emscripten.clang"
  },
  "schemaVersion": "3.3.2",
  "updatedAt": "2021-01-20T22:59:56.119Z",
  "networkType": "ethereum",
  "devdoc": {
    "kind": "dev",
    "methods": {
      "getRoleAdmin(bytes32)": {
        "details": "Returns the admin role that controls `role`. See {grantRole} and {revokeRole}. To change a role's admin, use {_setRoleAdmin}."
      },
      "getRoleMember(bytes32,uint256)": {
        "details": "Returns one of the accounts that have `role`. `index` must be a value between 0 and {getRoleMemberCount}, non-inclusive. Role bearers are not sorted in any particular way, and their ordering may change at any point. WARNING: When using {getRoleMember} and {getRoleMemberCount}, make sure you perform all queries on the same block. See the following https://forum.openzeppelin.com/t/iterating-over-elements-on-enumerableset-in-openzeppelin-contracts/2296[forum post] for more information."
      },
      "getRoleMemberCount(bytes32)": {
        "details": "Returns the number of accounts that have `role`. Can be used together with {getRoleMember} to enumerate all bearers of a role."
      },
      "grantRole(bytes32,address)": {
        "details": "Grants `role` to `account`. If `account` had not been already granted `role`, emits a {RoleGranted} event. Requirements: - the caller must have ``role``'s admin role."
      },
      "hasRole(bytes32,address)": {
        "details": "Returns `true` if `account` has been granted `role`."
      },
      "renounceRole(bytes32,address)": {
        "details": "Revokes `role` from the calling account. Roles are often managed via {grantRole} and {revokeRole}: this function's purpose is to provide a mechanism for accounts to lose their privileges if they are compromised (such as when a trusted device is misplaced). If the calling account had been granted `role`, emits a {RoleRevoked} event. Requirements: - the caller must be `account`."
      },
      "revokeRole(bytes32,address)": {
        "details": "Revokes `role` from `account`. If `account` had been granted `role`, emits a {RoleRevoked} event. Requirements: - the caller must have ``role``'s admin role."
      }
    },
    "version": 1
  },
  "userdoc": {
    "kind": "user",
    "methods": {},
    "version": 1
  }
}