{
  "contractName": "Donations",
  "abi": [
    {
      "inputs": [],
      "name": "owner",
      "outputs": [
        {
          "internalType": "address",
          "name": "",
          "type": "address"
        }
      ],
      "stateMutability": "view",
      "type": "function",
      "constant": true
    },
    {
      "inputs": [],
      "name": "initialize",
      "outputs": [],
      "stateMutability": "nonpayable",
      "type": "function"
    },
    {
      "inputs": [],
      "name": "getData",
      "outputs": [
        {
          "internalType": "uint256",
          "name": "",
          "type": "uint256"
        }
      ],
      "stateMutability": "view",
      "type": "function",
      "constant": true
    },
    {
      "inputs": [
        {
          "internalType": "uint256",
          "name": "_data",
          "type": "uint256"
        }
      ],
      "name": "setData",
      "outputs": [],
      "stateMutability": "nonpayable",
      "type": "function"
    }
  ],
  "bytecode": "0x608060405234801561001057600080fd5b506102cf806100206000396000f3fe608060405234801561001057600080fd5b506004361061004c5760003560e01c80633bc5de30146100515780635b4b73a91461006f5780638129fc1c1461009d5780638da5cb5b146100a7575b600080fd5b6100596100db565b6040518082815260200191505060405180910390f35b61009b6004803603602081101561008557600080fd5b81019080803590602001909291905050506100e5565b005b6100a56100ef565b005b6100af61022e565b604051808273ffffffffffffffffffffffffffffffffffffffff16815260200191505060405180910390f35b6000603454905090565b8060348190555050565b600060019054906101000a900460ff168061010e575061010d610254565b5b80610124575060008054906101000a900460ff16155b610179576040517f08c379a000000000000000000000000000000000000000000000000000000000815260040180806020018281038252602e81526020018061026c602e913960400191505060405180910390fd5b60008060019054906101000a900460ff1615905080156101c9576001600060016101000a81548160ff02191690831515021790555060016000806101000a81548160ff0219169083151502179055505b33603360006101000a81548173ffffffffffffffffffffffffffffffffffffffff021916908373ffffffffffffffffffffffffffffffffffffffff160217905550801561022b5760008060016101000a81548160ff0219169083151502179055505b50565b603360009054906101000a900473ffffffffffffffffffffffffffffffffffffffff1681565b6000803090506000813b905060008114925050509056fe436f6e747261637420696e7374616e63652068617320616c7265616479206265656e20696e697469616c697a6564a26469706673582212208418dd6dda81f8dafdb8ac35e80eb02923207dfd03ac735f0d2f2890870227ce64736f6c634300060c0033",
  "immutableReferences": {},
  "source": "pragma solidity ^0.6.0;\r\nimport \"@openzeppelin/upgrades-core/contracts/Initializable.sol\";\r\n\r\n\r\ncontract Donations is Initializable  {\r\n  //using SafeMath for uint256;    \r\n    \r\n  address public owner;\r\n  uint data;\r\n  \r\n  function initialize() public initializer {\r\n    owner = msg.sender;\r\n  }\r\n  \r\n  function getData() external view returns(uint){\r\n      return data;\r\n  }\r\n  \r\n  function setData(uint _data) external {\r\n      data = _data;\r\n  }\r\n}",
  "sourcePath": "C:/Users/Aron/Desktop/node/openzeppelin/contracts/Donations.sol",
  "compiler": {
    "name": "solc",
    "version": "0.6.12+commit.27d51765.Emscripten.clang"
  },
  "schemaVersion": "3.3.2",
  "updatedAt": "2021-01-07T13:30:26.033Z",
  "networkType": "ethereum",
  "devdoc": {
    "kind": "dev",
    "methods": {},
    "version": 1
  },
  "userdoc": {
    "kind": "user",
    "methods": {},
    "version": 1
  }
}