{
  "contractName": "Donations2",
  "abi": [
    {
      "inputs": [],
      "name": "owner",
      "outputs": [
        {
          "internalType": "address",
          "name": "",
          "type": "address"
        }
      ],
      "stateMutability": "view",
      "type": "function",
      "constant": true
    },
    {
      "inputs": [],
      "name": "initialize",
      "outputs": [],
      "stateMutability": "nonpayable",
      "type": "function"
    },
    {
      "inputs": [],
      "name": "getData",
      "outputs": [
        {
          "internalType": "uint256",
          "name": "",
          "type": "uint256"
        }
      ],
      "stateMutability": "view",
      "type": "function",
      "constant": true
    },
    {
      "inputs": [
        {
          "internalType": "uint256",
          "name": "_data",
          "type": "uint256"
        }
      ],
      "name": "setData",
      "outputs": [],
      "stateMutability": "nonpayable",
      "type": "function"
    },
    {
      "inputs": [
        {
          "internalType": "uint256",
          "name": "_data",
          "type": "uint256"
        }
      ],
      "name": "setData2",
      "outputs": [],
      "stateMutability": "nonpayable",
      "type": "function"
    }
  ],
  "bytecode": "0x608060405234801561001057600080fd5b50610315806100206000396000f3fe608060405234801561001057600080fd5b50600436106100575760003560e01c806301d61e5d1461005c5780633bc5de301461008a5780635b4b73a9146100a85780638129fc1c146100d65780638da5cb5b146100e0575b600080fd5b6100886004803603602081101561007257600080fd5b8101908080359060200190929190505050610114565b005b610092610121565b6040518082815260200191505060405180910390f35b6100d4600480360360208110156100be57600080fd5b810190808035906020019092919050505061012b565b005b6100de610135565b005b6100e8610274565b604051808273ffffffffffffffffffffffffffffffffffffffff16815260200191505060405180910390f35b600f810160348190555050565b6000603454905090565b8060348190555050565b600060019054906101000a900460ff1680610154575061015361029a565b5b8061016a575060008054906101000a900460ff16155b6101bf576040517f08c379a000000000000000000000000000000000000000000000000000000000815260040180806020018281038252602e8152602001806102b2602e913960400191505060405180910390fd5b60008060019054906101000a900460ff16159050801561020f576001600060016101000a81548160ff02191690831515021790555060016000806101000a81548160ff0219169083151502179055505b33603360006101000a81548173ffffffffffffffffffffffffffffffffffffffff021916908373ffffffffffffffffffffffffffffffffffffffff16021790555080156102715760008060016101000a81548160ff0219169083151502179055505b50565b603360009054906101000a900473ffffffffffffffffffffffffffffffffffffffff1681565b6000803090506000813b905060008114925050509056fe436f6e747261637420696e7374616e63652068617320616c7265616479206265656e20696e697469616c697a6564a2646970667358221220dba94c4b3344830c05a229d5b92c7f7cfd747d73698832dadcd1a7a6e8a1066864736f6c634300060c0033",
  "immutableReferences": {},
  "source": "pragma solidity ^0.6.0;\r\nimport \"@openzeppelin/upgrades-core/contracts/Initializable.sol\";\r\n\r\ncontract Donations2 is Initializable  {\r\n\r\n  address public owner;\r\n  uint data;\r\n  \r\n  function initialize() public initializer {\r\n    owner = msg.sender;\r\n  }\r\n  \r\n  function getData() external view returns(uint){\r\n      return data;\r\n  }\r\n  \r\n  function setData(uint _data) external {\r\n      data = _data;\r\n  }\r\n\r\n    function setData2(uint _data) external {\r\n      data = _data+15;\r\n  }\r\n  \r\n}",
  "sourcePath": "C:/Users/Aron/Desktop/node/openzeppelin/contracts/Donations2.sol",
  "compiler": {
    "name": "solc",
    "version": "0.6.12+commit.27d51765.Emscripten.clang"
  },
  "schemaVersion": "3.3.2",
  "updatedAt": "2021-01-07T13:30:26.034Z",
  "networkType": "ethereum",
  "devdoc": {
    "kind": "dev",
    "methods": {},
    "version": 1
  },
  "userdoc": {
    "kind": "user",
    "methods": {},
    "version": 1
  }
}